{
  "_format": "hh-sol-artifact-1",
  "contractName": "BlockSideNFT",
  "sourceName": "contracts/BlockSideNFT.sol",
  "abi": [
    {
      "inputs": [
        {
          "internalType": "string",
          "name": "name",
          "type": "string"
        },
        {
          "internalType": "string",
          "name": "symbol",
          "type": "string"
        },
        {
          "internalType": "string",
          "name": "uri",
          "type": "string"
        },
        {
          "internalType": "address",
          "name": "admin",
          "type": "address"
        }
      ],
      "stateMutability": "nonpayable",
      "type": "constructor"
    },
    {
      "anonymous": false,
      "inputs": [
        {
          "indexed": true,
          "internalType": "address",
          "name": "owner",
          "type": "address"
        },
        {
          "indexed": true,
          "internalType": "address",
          "name": "approved",
          "type": "address"
        },
        {
          "indexed": true,
          "internalType": "uint256",
          "name": "tokenId",
          "type": "uint256"
        }
      ],
      "name": "Approval",
      "type": "event"
    },
    {
      "anonymous": false,
      "inputs": [
        {
          "indexed": true,
          "internalType": "address",
          "name": "owner",
          "type": "address"
        },
        {
          "indexed": true,
          "internalType": "address",
          "name": "operator",
          "type": "address"
        },
        {
          "indexed": false,
          "internalType": "bool",
          "name": "approved",
          "type": "bool"
        }
      ],
      "name": "ApprovalForAll",
      "type": "event"
    },
    {
      "anonymous": false,
      "inputs": [
        {
          "indexed": false,
          "internalType": "address",
          "name": "account",
          "type": "address"
        }
      ],
      "name": "Paused",
      "type": "event"
    },
    {
      "anonymous": false,
      "inputs": [
        {
          "indexed": true,
          "internalType": "bytes32",
          "name": "role",
          "type": "bytes32"
        },
        {
          "indexed": true,
          "internalType": "bytes32",
          "name": "previousAdminRole",
          "type": "bytes32"
        },
        {
          "indexed": true,
          "internalType": "bytes32",
          "name": "newAdminRole",
          "type": "bytes32"
        }
      ],
      "name": "RoleAdminChanged",
      "type": "event"
    },
    {
      "anonymous": false,
      "inputs": [
        {
          "indexed": true,
          "internalType": "bytes32",
          "name": "role",
          "type": "bytes32"
        },
        {
          "indexed": true,
          "internalType": "address",
          "name": "account",
          "type": "address"
        },
        {
          "indexed": true,
          "internalType": "address",
          "name": "sender",
          "type": "address"
        }
      ],
      "name": "RoleGranted",
      "type": "event"
    },
    {
      "anonymous": false,
      "inputs": [
        {
          "indexed": true,
          "internalType": "bytes32",
          "name": "role",
          "type": "bytes32"
        },
        {
          "indexed": true,
          "internalType": "address",
          "name": "account",
          "type": "address"
        },
        {
          "indexed": true,
          "internalType": "address",
          "name": "sender",
          "type": "address"
        }
      ],
      "name": "RoleRevoked",
      "type": "event"
    },
    {
      "anonymous": false,
      "inputs": [
        {
          "indexed": true,
          "internalType": "address",
          "name": "from",
          "type": "address"
        },
        {
          "indexed": true,
          "internalType": "address",
          "name": "to",
          "type": "address"
        },
        {
          "indexed": true,
          "internalType": "uint256",
          "name": "tokenId",
          "type": "uint256"
        }
      ],
      "name": "Transfer",
      "type": "event"
    },
    {
      "anonymous": false,
      "inputs": [
        {
          "indexed": false,
          "internalType": "address",
          "name": "account",
          "type": "address"
        }
      ],
      "name": "Unpaused",
      "type": "event"
    },
    {
      "inputs": [],
      "name": "DEFAULT_ADMIN_ROLE",
      "outputs": [
        {
          "internalType": "bytes32",
          "name": "",
          "type": "bytes32"
        }
      ],
      "stateMutability": "view",
      "type": "function"
    },
    {
      "inputs": [],
      "name": "MINTER_ROLE",
      "outputs": [
        {
          "internalType": "bytes32",
          "name": "",
          "type": "bytes32"
        }
      ],
      "stateMutability": "view",
      "type": "function"
    },
    {
      "inputs": [],
      "name": "PAUSER_ROLE",
      "outputs": [
        {
          "internalType": "bytes32",
          "name": "",
          "type": "bytes32"
        }
      ],
      "stateMutability": "view",
      "type": "function"
    },
    {
      "inputs": [
        {
          "internalType": "address",
          "name": "to",
          "type": "address"
        },
        {
          "internalType": "uint256",
          "name": "tokenId",
          "type": "uint256"
        }
      ],
      "name": "approve",
      "outputs": [],
      "stateMutability": "nonpayable",
      "type": "function"
    },
    {
      "inputs": [
        {
          "internalType": "address",
          "name": "owner",
          "type": "address"
        }
      ],
      "name": "balanceOf",
      "outputs": [
        {
          "internalType": "uint256",
          "name": "",
          "type": "uint256"
        }
      ],
      "stateMutability": "view",
      "type": "function"
    },
    {
      "inputs": [
        {
          "internalType": "uint256",
          "name": "tokenId",
          "type": "uint256"
        }
      ],
      "name": "burn",
      "outputs": [],
      "stateMutability": "nonpayable",
      "type": "function"
    },
    {
      "inputs": [
        {
          "internalType": "uint256",
          "name": "tokenId",
          "type": "uint256"
        }
      ],
      "name": "getApproved",
      "outputs": [
        {
          "internalType": "address",
          "name": "",
          "type": "address"
        }
      ],
      "stateMutability": "view",
      "type": "function"
    },
    {
      "inputs": [
        {
          "internalType": "bytes32",
          "name": "role",
          "type": "bytes32"
        }
      ],
      "name": "getRoleAdmin",
      "outputs": [
        {
          "internalType": "bytes32",
          "name": "",
          "type": "bytes32"
        }
      ],
      "stateMutability": "view",
      "type": "function"
    },
    {
      "inputs": [
        {
          "internalType": "bytes32",
          "name": "role",
          "type": "bytes32"
        },
        {
          "internalType": "address",
          "name": "account",
          "type": "address"
        }
      ],
      "name": "grantRole",
      "outputs": [],
      "stateMutability": "nonpayable",
      "type": "function"
    },
    {
      "inputs": [
        {
          "internalType": "bytes32",
          "name": "role",
          "type": "bytes32"
        },
        {
          "internalType": "address",
          "name": "account",
          "type": "address"
        }
      ],
      "name": "hasRole",
      "outputs": [
        {
          "internalType": "bool",
          "name": "",
          "type": "bool"
        }
      ],
      "stateMutability": "view",
      "type": "function"
    },
    {
      "inputs": [
        {
          "internalType": "address",
          "name": "owner",
          "type": "address"
        },
        {
          "internalType": "address",
          "name": "operator",
          "type": "address"
        }
      ],
      "name": "isApprovedForAll",
      "outputs": [
        {
          "internalType": "bool",
          "name": "",
          "type": "bool"
        }
      ],
      "stateMutability": "view",
      "type": "function"
    },
    {
      "inputs": [],
      "name": "name",
      "outputs": [
        {
          "internalType": "string",
          "name": "",
          "type": "string"
        }
      ],
      "stateMutability": "view",
      "type": "function"
    },
    {
      "inputs": [
        {
          "internalType": "uint256",
          "name": "tokenId",
          "type": "uint256"
        }
      ],
      "name": "ownerOf",
      "outputs": [
        {
          "internalType": "address",
          "name": "",
          "type": "address"
        }
      ],
      "stateMutability": "view",
      "type": "function"
    },
    {
      "inputs": [],
      "name": "pause",
      "outputs": [],
      "stateMutability": "nonpayable",
      "type": "function"
    },
    {
      "inputs": [],
      "name": "paused",
      "outputs": [
        {
          "internalType": "bool",
          "name": "",
          "type": "bool"
        }
      ],
      "stateMutability": "view",
      "type": "function"
    },
    {
      "inputs": [
        {
          "internalType": "bytes32",
          "name": "role",
          "type": "bytes32"
        },
        {
          "internalType": "address",
          "name": "account",
          "type": "address"
        }
      ],
      "name": "renounceRole",
      "outputs": [],
      "stateMutability": "nonpayable",
      "type": "function"
    },
    {
      "inputs": [
        {
          "internalType": "bytes32",
          "name": "role",
          "type": "bytes32"
        },
        {
          "internalType": "address",
          "name": "account",
          "type": "address"
        }
      ],
      "name": "revokeRole",
      "outputs": [],
      "stateMutability": "nonpayable",
      "type": "function"
    },
    {
      "inputs": [
        {
          "internalType": "address",
          "name": "to",
          "type": "address"
        },
        {
          "internalType": "uint256",
          "name": "tokenId",
          "type": "uint256"
        }
      ],
      "name": "safeMint",
      "outputs": [],
      "stateMutability": "nonpayable",
      "type": "function"
    },
    {
      "inputs": [
        {
          "internalType": "address",
          "name": "from",
          "type": "address"
        },
        {
          "internalType": "address",
          "name": "to",
          "type": "address"
        },
        {
          "internalType": "uint256",
          "name": "tokenId",
          "type": "uint256"
        }
      ],
      "name": "safeTransferFrom",
      "outputs": [],
      "stateMutability": "nonpayable",
      "type": "function"
    },
    {
      "inputs": [
        {
          "internalType": "address",
          "name": "from",
          "type": "address"
        },
        {
          "internalType": "address",
          "name": "to",
          "type": "address"
        },
        {
          "internalType": "uint256",
          "name": "tokenId",
          "type": "uint256"
        },
        {
          "internalType": "bytes",
          "name": "data",
          "type": "bytes"
        }
      ],
      "name": "safeTransferFrom",
      "outputs": [],
      "stateMutability": "nonpayable",
      "type": "function"
    },
    {
      "inputs": [
        {
          "internalType": "address",
          "name": "operator",
          "type": "address"
        },
        {
          "internalType": "bool",
          "name": "approved",
          "type": "bool"
        }
      ],
      "name": "setApprovalForAll",
      "outputs": [],
      "stateMutability": "nonpayable",
      "type": "function"
    },
    {
      "inputs": [
        {
          "internalType": "bytes4",
          "name": "interfaceId",
          "type": "bytes4"
        }
      ],
      "name": "supportsInterface",
      "outputs": [
        {
          "internalType": "bool",
          "name": "",
          "type": "bool"
        }
      ],
      "stateMutability": "view",
      "type": "function"
    },
    {
      "inputs": [],
      "name": "symbol",
      "outputs": [
        {
          "internalType": "string",
          "name": "",
          "type": "string"
        }
      ],
      "stateMutability": "view",
      "type": "function"
    },
    {
      "inputs": [
        {
          "internalType": "uint256",
          "name": "index",
          "type": "uint256"
        }
      ],
      "name": "tokenByIndex",
      "outputs": [
        {
          "internalType": "uint256",
          "name": "",
          "type": "uint256"
        }
      ],
      "stateMutability": "view",
      "type": "function"
    },
    {
      "inputs": [
        {
          "internalType": "address",
          "name": "owner",
          "type": "address"
        },
        {
          "internalType": "uint256",
          "name": "index",
          "type": "uint256"
        }
      ],
      "name": "tokenOfOwnerByIndex",
      "outputs": [
        {
          "internalType": "uint256",
          "name": "",
          "type": "uint256"
        }
      ],
      "stateMutability": "view",
      "type": "function"
    },
    {
      "inputs": [
        {
          "internalType": "uint256",
          "name": "tokenId",
          "type": "uint256"
        }
      ],
      "name": "tokenURI",
      "outputs": [
        {
          "internalType": "string",
          "name": "",
          "type": "string"
        }
      ],
      "stateMutability": "view",
      "type": "function"
    },
    {
      "inputs": [],
      "name": "totalSupply",
      "outputs": [
        {
          "internalType": "uint256",
          "name": "",
          "type": "uint256"
        }
      ],
      "stateMutability": "view",
      "type": "function"
    },
    {
      "inputs": [
        {
          "internalType": "address",
          "name": "from",
          "type": "address"
        },
        {
          "internalType": "address",
          "name": "to",
          "type": "address"
        },
        {
          "internalType": "uint256",
          "name": "tokenId",
          "type": "uint256"
        }
      ],
      "name": "transferFrom",
      "outputs": [],
      "stateMutability": "nonpayable",
      "type": "function"
    },
    {
      "inputs": [],
      "name": "unpause",
      "outputs": [],
      "stateMutability": "nonpayable",
      "type": "function"
    }
  ],
  "bytecode": "0x60806040523480156200001157600080fd5b50604051620045323803806200453283398181016040528101906200003791906200046c565b838381600090816200004a919062000786565b5080600190816200005c919062000786565b5050506000600a60006101000a81548160ff02191690831515021790555081600c90816200008b919062000786565b50620000a16000801b826200010f60201b60201c565b620000d37f65d7a28e3265b37a6474929f336521b332c1681b933f6cb9f3376673440d862a826200010f60201b60201c565b620001057f9f2df0fed2c77648de5860a4cc508cd0818c85b8b8a1ab4ceeef8d981c8956a6336200010f60201b60201c565b505050506200086d565b6200012182826200020160201b60201c565b620001fd576001600b600084815260200190815260200160002060000160008373ffffffffffffffffffffffffffffffffffffffff1673ffffffffffffffffffffffffffffffffffffffff16815260200190815260200160002060006101000a81548160ff021916908315150217905550620001a26200026c60201b60201c565b73ffffffffffffffffffffffffffffffffffffffff168173ffffffffffffffffffffffffffffffffffffffff16837f2f8788117e7eff1d82e926ec794901d17c78024a50270940304540a733656f0d60405160405180910390a45b5050565b6000600b600084815260200190815260200160002060000160008373ffffffffffffffffffffffffffffffffffffffff1673ffffffffffffffffffffffffffffffffffffffff16815260200190815260200160002060009054906101000a900460ff16905092915050565b600033905090565b6000604051905090565b600080fd5b600080fd5b600080fd5b600080fd5b6000601f19601f8301169050919050565b7f4e487b7100000000000000000000000000000000000000000000000000000000600052604160045260246000fd5b620002dd8262000292565b810181811067ffffffffffffffff82111715620002ff57620002fe620002a3565b5b80604052505050565b60006200031462000274565b9050620003228282620002d2565b919050565b600067ffffffffffffffff821115620003455762000344620002a3565b5b620003508262000292565b9050602081019050919050565b60005b838110156200037d57808201518184015260208101905062000360565b60008484015250505050565b6000620003a06200039a8462000327565b62000308565b905082815260208101848484011115620003bf57620003be6200028d565b5b620003cc8482856200035d565b509392505050565b600082601f830112620003ec57620003eb62000288565b5b8151620003fe84826020860162000389565b91505092915050565b600073ffffffffffffffffffffffffffffffffffffffff82169050919050565b6000620004348262000407565b9050919050565b620004468162000427565b81146200045257600080fd5b50565b60008151905062000466816200043b565b92915050565b600080600080608085870312156200048957620004886200027e565b5b600085015167ffffffffffffffff811115620004aa57620004a962000283565b5b620004b887828801620003d4565b945050602085015167ffffffffffffffff811115620004dc57620004db62000283565b5b620004ea87828801620003d4565b935050604085015167ffffffffffffffff8111156200050e576200050d62000283565b5b6200051c87828801620003d4565b92505060606200052f8782880162000455565b91505092959194509250565b600081519050919050565b7f4e487b7100000000000000000000000000000000000000000000000000000000600052602260045260246000fd5b600060028204905060018216806200058e57607f821691505b602082108103620005a457620005a362000546565b5b50919050565b60008190508160005260206000209050919050565b60006020601f8301049050919050565b600082821b905092915050565b6000600883026200060e7fffffffffffffffffffffffffffffffffffffffffffffffffffffffffffffffff82620005cf565b6200061a8683620005cf565b95508019841693508086168417925050509392505050565b6000819050919050565b6000819050919050565b600062000667620006616200065b8462000632565b6200063c565b62000632565b9050919050565b6000819050919050565b620006838362000646565b6200069b62000692826200066e565b848454620005dc565b825550505050565b600090565b620006b2620006a3565b620006bf81848462000678565b505050565b5b81811015620006e757620006db600082620006a8565b600181019050620006c5565b5050565b601f82111562000736576200070081620005aa565b6200070b84620005bf565b810160208510156200071b578190505b620007336200072a85620005bf565b830182620006c4565b50505b505050565b600082821c905092915050565b60006200075b600019846008026200073b565b1980831691505092915050565b600062000776838362000748565b9150826002028217905092915050565b62000791826200053b565b67ffffffffffffffff811115620007ad57620007ac620002a3565b5b620007b9825462000575565b620007c6828285620006eb565b600060209050601f831160018114620007fe5760008415620007e9578287015190505b620007f5858262000768565b86555062000865565b601f1984166200080e86620005aa565b60005b82811015620008385784890151825560018201915060208501945060208101905062000811565b8683101562000858578489015162000854601f89168262000748565b8355505b6001600288020188555050505b505050505050565b613cb5806200087d6000396000f3fe608060405234801561001057600080fd5b50600436106101cf5760003560e01c80635c975abb11610104578063a217fddf116100a2578063d539139311610071578063d53913931461052a578063d547741f14610548578063e63ab1e914610564578063e985e9c514610582576101cf565b8063a217fddf146104a4578063a22cb465146104c2578063b88d4fde146104de578063c87b56dd146104fa576101cf565b80638456cb59116100de5780638456cb591461043057806391d148541461043a57806395d89b411461046a578063a144819414610488576101cf565b80635c975abb146103b25780636352211e146103d057806370a0823114610400576101cf565b80632f2ff15d116101715780633f4ba83a1161014b5780633f4ba83a1461034057806342842e0e1461034a57806342966c68146103665780634f6ccce714610382576101cf565b80632f2ff15d146102d85780632f745c59146102f457806336568abe14610324576101cf565b8063095ea7b3116101ad578063095ea7b31461025257806318160ddd1461026e57806323b872dd1461028c578063248a9ca3146102a8576101cf565b806301ffc9a7146101d457806306fdde0314610204578063081812fc14610222575b600080fd5b6101ee60048036038101906101e99190612979565b6105b2565b6040516101fb91906129c1565b60405180910390f35b61020c6105c4565b6040516102199190612a6c565b60405180910390f35b61023c60048036038101906102379190612ac4565b610656565b6040516102499190612b32565b60405180910390f35b61026c60048036038101906102679190612b79565b61069c565b005b6102766107b3565b6040516102839190612bc8565b60405180910390f35b6102a660048036038101906102a19190612be3565b6107c0565b005b6102c260048036038101906102bd9190612c6c565b610820565b6040516102cf9190612ca8565b60405180910390f35b6102f260048036038101906102ed9190612cc3565b610840565b005b61030e60048036038101906103099190612b79565b610861565b60405161031b9190612bc8565b60405180910390f35b61033e60048036038101906103399190612cc3565b610906565b005b610348610989565b005b610364600480360381019061035f9190612be3565b6109be565b005b610380600480360381019061037b9190612ac4565b6109de565b005b61039c60048036038101906103979190612ac4565b610a3a565b6040516103a99190612bc8565b60405180910390f35b6103ba610aab565b6040516103c791906129c1565b60405180910390f35b6103ea60048036038101906103e59190612ac4565b610ac2565b6040516103f79190612b32565b60405180910390f35b61041a60048036038101906104159190612d03565b610b48565b6040516104279190612bc8565b60405180910390f35b610438610bff565b005b610454600480360381019061044f9190612cc3565b610c34565b60405161046191906129c1565b60405180910390f35b610472610c9f565b60405161047f9190612a6c565b60405180910390f35b6104a2600480360381019061049d9190612b79565b610d31565b005b6104ac610d6a565b6040516104b99190612ca8565b60405180910390f35b6104dc60048036038101906104d79190612d5c565b610d71565b005b6104f860048036038101906104f39190612ed1565b610d87565b005b610514600480360381019061050f9190612ac4565b610de9565b6040516105219190612a6c565b60405180910390f35b610532610e28565b60405161053f9190612ca8565b60405180910390f35b610562600480360381019061055d9190612cc3565b610e4c565b005b61056c610e6d565b6040516105799190612ca8565b60405180910390f35b61059c60048036038101906105979190612f54565b610e91565b6040516105a991906129c1565b60405180910390f35b60006105bd82610f25565b9050919050565b6060600080546105d390612fc3565b80601f01602080910402602001604051908101604052809291908181526020018280546105ff90612fc3565b801561064c5780601f106106215761010080835404028352916020019161064c565b820191906000526020600020905b81548152906001019060200180831161062f57829003601f168201915b5050505050905090565b600061066182610f9f565b6004600083815260200190815260200160002060009054906101000a900473ffffffffffffffffffffffffffffffffffffffff169050919050565b60006106a782610ac2565b90508073ffffffffffffffffffffffffffffffffffffffff168373ffffffffffffffffffffffffffffffffffffffff1603610717576040517f08c379a000000000000000000000000000000000000000000000000000000000815260040161070e90613066565b60405180910390fd5b8073ffffffffffffffffffffffffffffffffffffffff16610736610fea565b73ffffffffffffffffffffffffffffffffffffffff16148061076557506107648161075f610fea565b610e91565b5b6107a4576040517f08c379a000000000000000000000000000000000000000000000000000000000815260040161079b906130f8565b60405180910390fd5b6107ae8383610ff2565b505050565b6000600880549050905090565b6107d16107cb610fea565b826110ab565b610810576040517f08c379a00000000000000000000000000000000000000000000000000000000081526004016108079061318a565b60405180910390fd5b61081b838383611140565b505050565b6000600b6000838152602001908152602001600020600101549050919050565b61084982610820565b61085281611439565b61085c838361144d565b505050565b600061086c83610b48565b82106108ad576040517f08c379a00000000000000000000000000000000000000000000000000000000081526004016108a49061321c565b60405180910390fd5b600660008473ffffffffffffffffffffffffffffffffffffffff1673ffffffffffffffffffffffffffffffffffffffff168152602001908152602001600020600083815260200190815260200160002054905092915050565b61090e610fea565b73ffffffffffffffffffffffffffffffffffffffff168173ffffffffffffffffffffffffffffffffffffffff161461097b576040517f08c379a0000000000000000000000000000000000000000000000000000000008152600401610972906132ae565b60405180910390fd5b610985828261152e565b5050565b7f65d7a28e3265b37a6474929f336521b332c1681b933f6cb9f3376673440d862a6109b381611439565b6109bb611610565b50565b6109d983838360405180602001604052806000815250610d87565b505050565b6109ef6109e9610fea565b826110ab565b610a2e576040517f08c379a0000000000000000000000000000000000000000000000000000000008152600401610a259061318a565b60405180910390fd5b610a3781611673565b50565b6000610a446107b3565b8210610a85576040517f08c379a0000000000000000000000000000000000000000000000000000000008152600401610a7c90613340565b60405180910390fd5b60088281548110610a9957610a98613360565b5b90600052602060002001549050919050565b6000600a60009054906101000a900460ff16905090565b600080610ace836117c1565b9050600073ffffffffffffffffffffffffffffffffffffffff168173ffffffffffffffffffffffffffffffffffffffff1603610b3f576040517f08c379a0000000000000000000000000000000000000000000000000000000008152600401610b36906133db565b60405180910390fd5b80915050919050565b60008073ffffffffffffffffffffffffffffffffffffffff168273ffffffffffffffffffffffffffffffffffffffff1603610bb8576040517f08c379a0000000000000000000000000000000000000000000000000000000008152600401610baf9061346d565b60405180910390fd5b600360008373ffffffffffffffffffffffffffffffffffffffff1673ffffffffffffffffffffffffffffffffffffffff168152602001908152602001600020549050919050565b7f65d7a28e3265b37a6474929f336521b332c1681b933f6cb9f3376673440d862a610c2981611439565b610c316117fe565b50565b6000600b600084815260200190815260200160002060000160008373ffffffffffffffffffffffffffffffffffffffff1673ffffffffffffffffffffffffffffffffffffffff16815260200190815260200160002060009054906101000a900460ff16905092915050565b606060018054610cae90612fc3565b80601f0160208091040260200160405190810160405280929190818152602001828054610cda90612fc3565b8015610d275780601f10610cfc57610100808354040283529160200191610d27565b820191906000526020600020905b815481529060010190602001808311610d0a57829003601f168201915b5050505050905090565b7f9f2df0fed2c77648de5860a4cc508cd0818c85b8b8a1ab4ceeef8d981c8956a6610d5b81611439565b610d658383611861565b505050565b6000801b81565b610d83610d7c610fea565b838361187f565b5050565b610d98610d92610fea565b836110ab565b610dd7576040517f08c379a0000000000000000000000000000000000000000000000000000000008152600401610dce9061318a565b60405180910390fd5b610de3848484846119eb565b50505050565b6060610df482610f9f565b6000610dfe611a47565b90506000815111610e1e5760405180602001604052806000815250610e20565b805b915050919050565b7f9f2df0fed2c77648de5860a4cc508cd0818c85b8b8a1ab4ceeef8d981c8956a681565b610e5582610820565b610e5e81611439565b610e68838361152e565b505050565b7f65d7a28e3265b37a6474929f336521b332c1681b933f6cb9f3376673440d862a81565b6000600560008473ffffffffffffffffffffffffffffffffffffffff1673ffffffffffffffffffffffffffffffffffffffff16815260200190815260200160002060008373ffffffffffffffffffffffffffffffffffffffff1673ffffffffffffffffffffffffffffffffffffffff16815260200190815260200160002060009054906101000a900460ff16905092915050565b60007f7965db0b000000000000000000000000000000000000000000000000000000007bffffffffffffffffffffffffffffffffffffffffffffffffffffffff1916827bffffffffffffffffffffffffffffffffffffffffffffffffffffffff19161480610f985750610f9782611ad9565b5b9050919050565b610fa881611b53565b610fe7576040517f08c379a0000000000000000000000000000000000000000000000000000000008152600401610fde906133db565b60405180910390fd5b50565b600033905090565b816004600083815260200190815260200160002060006101000a81548173ffffffffffffffffffffffffffffffffffffffff021916908373ffffffffffffffffffffffffffffffffffffffff160217905550808273ffffffffffffffffffffffffffffffffffffffff1661106583610ac2565b73ffffffffffffffffffffffffffffffffffffffff167f8c5be1e5ebec7d5bd14f71427d1e84f3dd0314c0f7b2291e5b200ac8c7c3b92560405160405180910390a45050565b6000806110b783610ac2565b90508073ffffffffffffffffffffffffffffffffffffffff168473ffffffffffffffffffffffffffffffffffffffff1614806110f957506110f88185610e91565b5b8061113757508373ffffffffffffffffffffffffffffffffffffffff1661111f84610656565b73ffffffffffffffffffffffffffffffffffffffff16145b91505092915050565b8273ffffffffffffffffffffffffffffffffffffffff1661116082610ac2565b73ffffffffffffffffffffffffffffffffffffffff16146111b6576040517f08c379a00000000000000000000000000000000000000000000000000000000081526004016111ad906134ff565b60405180910390fd5b600073ffffffffffffffffffffffffffffffffffffffff168273ffffffffffffffffffffffffffffffffffffffff1603611225576040517f08c379a000000000000000000000000000000000000000000000000000000000815260040161121c90613591565b60405180910390fd5b6112328383836001611b94565b8273ffffffffffffffffffffffffffffffffffffffff1661125282610ac2565b73ffffffffffffffffffffffffffffffffffffffff16146112a8576040517f08c379a000000000000000000000000000000000000000000000000000000000815260040161129f906134ff565b60405180910390fd5b6004600082815260200190815260200160002060006101000a81549073ffffffffffffffffffffffffffffffffffffffff02191690556001600360008573ffffffffffffffffffffffffffffffffffffffff1673ffffffffffffffffffffffffffffffffffffffff168152602001908152602001600020600082825403925050819055506001600360008473ffffffffffffffffffffffffffffffffffffffff1673ffffffffffffffffffffffffffffffffffffffff16815260200190815260200160002060008282540192505081905550816002600083815260200190815260200160002060006101000a81548173ffffffffffffffffffffffffffffffffffffffff021916908373ffffffffffffffffffffffffffffffffffffffff160217905550808273ffffffffffffffffffffffffffffffffffffffff168473ffffffffffffffffffffffffffffffffffffffff167fddf252ad1be2c89b69c2b068fc378daa952ba7f163c4a11628f55a4df523b3ef60405160405180910390a46114348383836001611bae565b505050565b61144a81611445610fea565b611bb4565b50565b6114578282610c34565b61152a576001600b600084815260200190815260200160002060000160008373ffffffffffffffffffffffffffffffffffffffff1673ffffffffffffffffffffffffffffffffffffffff16815260200190815260200160002060006101000a81548160ff0219169083151502179055506114cf610fea565b73ffffffffffffffffffffffffffffffffffffffff168173ffffffffffffffffffffffffffffffffffffffff16837f2f8788117e7eff1d82e926ec794901d17c78024a50270940304540a733656f0d60405160405180910390a45b5050565b6115388282610c34565b1561160c576000600b600084815260200190815260200160002060000160008373ffffffffffffffffffffffffffffffffffffffff1673ffffffffffffffffffffffffffffffffffffffff16815260200190815260200160002060006101000a81548160ff0219169083151502179055506115b1610fea565b73ffffffffffffffffffffffffffffffffffffffff168173ffffffffffffffffffffffffffffffffffffffff16837ff6391f5c32d9c69d2a47ea670b442974b53935d1edc7fd64eb21e047a839171b60405160405180910390a45b5050565b611618611c39565b6000600a60006101000a81548160ff0219169083151502179055507f5db9ee0a495bf2e6ff9c91a7834c1ba4fdd244a5e8aa4e537bd38aeae4b073aa61165c610fea565b6040516116699190612b32565b60405180910390a1565b600061167e82610ac2565b905061168e816000846001611b94565b61169782610ac2565b90506004600083815260200190815260200160002060006101000a81549073ffffffffffffffffffffffffffffffffffffffff02191690556001600360008373ffffffffffffffffffffffffffffffffffffffff1673ffffffffffffffffffffffffffffffffffffffff168152602001908152602001600020600082825403925050819055506002600083815260200190815260200160002060006101000a81549073ffffffffffffffffffffffffffffffffffffffff021916905581600073ffffffffffffffffffffffffffffffffffffffff168273ffffffffffffffffffffffffffffffffffffffff167fddf252ad1be2c89b69c2b068fc378daa952ba7f163c4a11628f55a4df523b3ef60405160405180910390a46117bd816000846001611bae565b5050565b60006002600083815260200190815260200160002060009054906101000a900473ffffffffffffffffffffffffffffffffffffffff169050919050565b611806611c82565b6001600a60006101000a81548160ff0219169083151502179055507f62e78cea01bee320cd4e420270b5ea74000d11b0c9f74754ebdbfc544b05a25861184a610fea565b6040516118579190612b32565b60405180910390a1565b61187b828260405180602001604052806000815250611ccc565b5050565b8173ffffffffffffffffffffffffffffffffffffffff168373ffffffffffffffffffffffffffffffffffffffff16036118ed576040517f08c379a00000000000000000000000000000000000000000000000000000000081526004016118e4906135fd565b60405180910390fd5b80600560008573ffffffffffffffffffffffffffffffffffffffff1673ffffffffffffffffffffffffffffffffffffffff16815260200190815260200160002060008473ffffffffffffffffffffffffffffffffffffffff1673ffffffffffffffffffffffffffffffffffffffff16815260200190815260200160002060006101000a81548160ff0219169083151502179055508173ffffffffffffffffffffffffffffffffffffffff168373ffffffffffffffffffffffffffffffffffffffff167f17307eab39ab6107e8899845ad3d59bd9653f200f220920489ca2b5937696c31836040516119de91906129c1565b60405180910390a3505050565b6119f6848484611140565b611a0284848484611d27565b611a41576040517f08c379a0000000000000000000000000000000000000000000000000000000008152600401611a389061368f565b60405180910390fd5b50505050565b6060600c8054611a5690612fc3565b80601f0160208091040260200160405190810160405280929190818152602001828054611a8290612fc3565b8015611acf5780601f10611aa457610100808354040283529160200191611acf565b820191906000526020600020905b815481529060010190602001808311611ab257829003601f168201915b5050505050905090565b60007f780e9d63000000000000000000000000000000000000000000000000000000007bffffffffffffffffffffffffffffffffffffffffffffffffffffffff1916827bffffffffffffffffffffffffffffffffffffffffffffffffffffffff19161480611b4c5750611b4b82611eae565b5b9050919050565b60008073ffffffffffffffffffffffffffffffffffffffff16611b75836117c1565b73ffffffffffffffffffffffffffffffffffffffff1614159050919050565b611b9c611c82565b611ba884848484611f90565b50505050565b50505050565b611bbe8282610c34565b611c3557611bcb816120ee565b611bd98360001c602061211b565b604051602001611bea929190613783565b6040516020818303038152906040526040517f08c379a0000000000000000000000000000000000000000000000000000000008152600401611c2c9190612a6c565b60405180910390fd5b5050565b611c41610aab565b611c80576040517f08c379a0000000000000000000000000000000000000000000000000000000008152600401611c7790613809565b60405180910390fd5b565b611c8a610aab565b15611cca576040517f08c379a0000000000000000000000000000000000000000000000000000000008152600401611cc190613875565b60405180910390fd5b565b611cd68383612357565b611ce36000848484611d27565b611d22576040517f08c379a0000000000000000000000000000000000000000000000000000000008152600401611d199061368f565b60405180910390fd5b505050565b6000611d488473ffffffffffffffffffffffffffffffffffffffff16612574565b15611ea1578373ffffffffffffffffffffffffffffffffffffffff1663150b7a02611d71610fea565b8786866040518563ffffffff1660e01b8152600401611d9394939291906138ea565b6020604051808303816000875af1925050508015611dcf57506040513d601f19601f82011682018060405250810190611dcc919061394b565b60015b611e51573d8060008114611dff576040519150601f19603f3d011682016040523d82523d6000602084013e611e04565b606091505b506000815103611e49576040517f08c379a0000000000000000000000000000000000000000000000000000000008152600401611e409061368f565b60405180910390fd5b805181602001fd5b63150b7a0260e01b7bffffffffffffffffffffffffffffffffffffffffffffffffffffffff1916817bffffffffffffffffffffffffffffffffffffffffffffffffffffffff191614915050611ea6565b600190505b949350505050565b60007f80ac58cd000000000000000000000000000000000000000000000000000000007bffffffffffffffffffffffffffffffffffffffffffffffffffffffff1916827bffffffffffffffffffffffffffffffffffffffffffffffffffffffff19161480611f7957507f5b5e139f000000000000000000000000000000000000000000000000000000007bffffffffffffffffffffffffffffffffffffffffffffffffffffffff1916827bffffffffffffffffffffffffffffffffffffffffffffffffffffffff1916145b80611f895750611f8882612597565b5b9050919050565b611f9c84848484612601565b6001811115611fe0576040517f08c379a0000000000000000000000000000000000000000000000000000000008152600401611fd7906139ea565b60405180910390fd5b6000829050600073ffffffffffffffffffffffffffffffffffffffff168573ffffffffffffffffffffffffffffffffffffffff16036120275761202281612607565b612066565b8373ffffffffffffffffffffffffffffffffffffffff168573ffffffffffffffffffffffffffffffffffffffff1614612065576120648582612650565b5b5b600073ffffffffffffffffffffffffffffffffffffffff168473ffffffffffffffffffffffffffffffffffffffff16036120a8576120a3816127bd565b6120e7565b8473ffffffffffffffffffffffffffffffffffffffff168473ffffffffffffffffffffffffffffffffffffffff16146120e6576120e5848261288e565b5b5b5050505050565b60606121148273ffffffffffffffffffffffffffffffffffffffff16601460ff1661211b565b9050919050565b60606000600283600261212e9190613a39565b6121389190613a7b565b67ffffffffffffffff81111561215157612150612da6565b5b6040519080825280601f01601f1916602001820160405280156121835781602001600182028036833780820191505090505b5090507f3000000000000000000000000000000000000000000000000000000000000000816000815181106121bb576121ba613360565b5b60200101907effffffffffffffffffffffffffffffffffffffffffffffffffffffffffffff1916908160001a9053507f78000000000000000000000000000000000000000000000000000000000000008160018151811061221f5761221e613360565b5b60200101907effffffffffffffffffffffffffffffffffffffffffffffffffffffffffffff1916908160001a9053506000600184600261225f9190613a39565b6122699190613a7b565b90505b6001811115612309577f3031323334353637383961626364656600000000000000000000000000000000600f8616601081106122ab576122aa613360565b5b1a60f81b8282815181106122c2576122c1613360565b5b60200101907effffffffffffffffffffffffffffffffffffffffffffffffffffffffffffff1916908160001a905350600485901c94508061230290613aaf565b905061226c565b506000841461234d576040517f08c379a000000000000000000000000000000000000000000000000000000000815260040161234490613b24565b60405180910390fd5b8091505092915050565b600073ffffffffffffffffffffffffffffffffffffffff168273ffffffffffffffffffffffffffffffffffffffff16036123c6576040517f08c379a00000000000000000000000000000000000000000000000000000000081526004016123bd90613b90565b60405180910390fd5b6123cf81611b53565b1561240f576040517f08c379a000000000000000000000000000000000000000000000000000000000815260040161240690613bfc565b60405180910390fd5b61241d600083836001611b94565b61242681611b53565b15612466576040517f08c379a000000000000000000000000000000000000000000000000000000000815260040161245d90613bfc565b60405180910390fd5b6001600360008473ffffffffffffffffffffffffffffffffffffffff1673ffffffffffffffffffffffffffffffffffffffff16815260200190815260200160002060008282540192505081905550816002600083815260200190815260200160002060006101000a81548173ffffffffffffffffffffffffffffffffffffffff021916908373ffffffffffffffffffffffffffffffffffffffff160217905550808273ffffffffffffffffffffffffffffffffffffffff16600073ffffffffffffffffffffffffffffffffffffffff167fddf252ad1be2c89b69c2b068fc378daa952ba7f163c4a11628f55a4df523b3ef60405160405180910390a4612570600083836001611bae565b5050565b6000808273ffffffffffffffffffffffffffffffffffffffff163b119050919050565b60007f01ffc9a7000000000000000000000000000000000000000000000000000000007bffffffffffffffffffffffffffffffffffffffffffffffffffffffff1916827bffffffffffffffffffffffffffffffffffffffffffffffffffffffff1916149050919050565b50505050565b6008805490506009600083815260200190815260200160002081905550600881908060018154018082558091505060019003906000526020600020016000909190919091505550565b6000600161265d84610b48565b6126679190613c1c565b905060006007600084815260200190815260200160002054905081811461274c576000600660008673ffffffffffffffffffffffffffffffffffffffff1673ffffffffffffffffffffffffffffffffffffffff168152602001908152602001600020600084815260200190815260200160002054905080600660008773ffffffffffffffffffffffffffffffffffffffff1673ffffffffffffffffffffffffffffffffffffffff168152602001908152602001600020600084815260200190815260200160002081905550816007600083815260200190815260200160002081905550505b6007600084815260200190815260200160002060009055600660008573ffffffffffffffffffffffffffffffffffffffff1673ffffffffffffffffffffffffffffffffffffffff16815260200190815260200160002060008381526020019081526020016000206000905550505050565b600060016008805490506127d19190613c1c565b905060006009600084815260200190815260200160002054905060006008838154811061280157612800613360565b5b90600052602060002001549050806008838154811061282357612822613360565b5b90600052602060002001819055508160096000838152602001908152602001600020819055506009600085815260200190815260200160002060009055600880548061287257612871613c50565b5b6001900381819060005260206000200160009055905550505050565b600061289983610b48565b905081600660008573ffffffffffffffffffffffffffffffffffffffff1673ffffffffffffffffffffffffffffffffffffffff168152602001908152602001600020600083815260200190815260200160002081905550806007600084815260200190815260200160002081905550505050565b6000604051905090565b600080fd5b600080fd5b60007fffffffff0000000000000000000000000000000000000000000000000000000082169050919050565b61295681612921565b811461296157600080fd5b50565b6000813590506129738161294d565b92915050565b60006020828403121561298f5761298e612917565b5b600061299d84828501612964565b91505092915050565b60008115159050919050565b6129bb816129a6565b82525050565b60006020820190506129d660008301846129b2565b92915050565b600081519050919050565b600082825260208201905092915050565b60005b83811015612a165780820151818401526020810190506129fb565b60008484015250505050565b6000601f19601f8301169050919050565b6000612a3e826129dc565b612a4881856129e7565b9350612a588185602086016129f8565b612a6181612a22565b840191505092915050565b60006020820190508181036000830152612a868184612a33565b905092915050565b6000819050919050565b612aa181612a8e565b8114612aac57600080fd5b50565b600081359050612abe81612a98565b92915050565b600060208284031215612ada57612ad9612917565b5b6000612ae884828501612aaf565b91505092915050565b600073ffffffffffffffffffffffffffffffffffffffff82169050919050565b6000612b1c82612af1565b9050919050565b612b2c81612b11565b82525050565b6000602082019050612b476000830184612b23565b92915050565b612b5681612b11565b8114612b6157600080fd5b50565b600081359050612b7381612b4d565b92915050565b60008060408385031215612b9057612b8f612917565b5b6000612b9e85828601612b64565b9250506020612baf85828601612aaf565b9150509250929050565b612bc281612a8e565b82525050565b6000602082019050612bdd6000830184612bb9565b92915050565b600080600060608486031215612bfc57612bfb612917565b5b6000612c0a86828701612b64565b9350506020612c1b86828701612b64565b9250506040612c2c86828701612aaf565b9150509250925092565b6000819050919050565b612c4981612c36565b8114612c5457600080fd5b50565b600081359050612c6681612c40565b92915050565b600060208284031215612c8257612c81612917565b5b6000612c9084828501612c57565b91505092915050565b612ca281612c36565b82525050565b6000602082019050612cbd6000830184612c99565b92915050565b60008060408385031215612cda57612cd9612917565b5b6000612ce885828601612c57565b9250506020612cf985828601612b64565b9150509250929050565b600060208284031215612d1957612d18612917565b5b6000612d2784828501612b64565b91505092915050565b612d39816129a6565b8114612d4457600080fd5b50565b600081359050612d5681612d30565b92915050565b60008060408385031215612d7357612d72612917565b5b6000612d8185828601612b64565b9250506020612d9285828601612d47565b9150509250929050565b600080fd5b600080fd5b7f4e487b7100000000000000000000000000000000000000000000000000000000600052604160045260246000fd5b612dde82612a22565b810181811067ffffffffffffffff82111715612dfd57612dfc612da6565b5b80604052505050565b6000612e1061290d565b9050612e1c8282612dd5565b919050565b600067ffffffffffffffff821115612e3c57612e3b612da6565b5b612e4582612a22565b9050602081019050919050565b82818337600083830152505050565b6000612e74612e6f84612e21565b612e06565b905082815260208101848484011115612e9057612e8f612da1565b5b612e9b848285612e52565b509392505050565b600082601f830112612eb857612eb7612d9c565b5b8135612ec8848260208601612e61565b91505092915050565b60008060008060808587031215612eeb57612eea612917565b5b6000612ef987828801612b64565b9450506020612f0a87828801612b64565b9350506040612f1b87828801612aaf565b925050606085013567ffffffffffffffff811115612f3c57612f3b61291c565b5b612f4887828801612ea3565b91505092959194509250565b60008060408385031215612f6b57612f6a612917565b5b6000612f7985828601612b64565b9250506020612f8a85828601612b64565b9150509250929050565b7f4e487b7100000000000000000000000000000000000000000000000000000000600052602260045260246000fd5b60006002820490506001821680612fdb57607f821691505b602082108103612fee57612fed612f94565b5b50919050565b7f4552433732313a20617070726f76616c20746f2063757272656e74206f776e6560008201527f7200000000000000000000000000000000000000000000000000000000000000602082015250565b60006130506021836129e7565b915061305b82612ff4565b604082019050919050565b6000602082019050818103600083015261307f81613043565b9050919050565b7f4552433732313a20617070726f76652063616c6c6572206973206e6f7420746f60008201527f6b656e206f776e6572206f7220617070726f76656420666f7220616c6c000000602082015250565b60006130e2603d836129e7565b91506130ed82613086565b604082019050919050565b60006020820190508181036000830152613111816130d5565b9050919050565b7f4552433732313a2063616c6c6572206973206e6f7420746f6b656e206f776e6560008201527f72206f7220617070726f76656400000000000000000000000000000000000000602082015250565b6000613174602d836129e7565b915061317f82613118565b604082019050919050565b600060208201905081810360008301526131a381613167565b9050919050565b7f455243373231456e756d657261626c653a206f776e657220696e646578206f7560008201527f74206f6620626f756e6473000000000000000000000000000000000000000000602082015250565b6000613206602b836129e7565b9150613211826131aa565b604082019050919050565b60006020820190508181036000830152613235816131f9565b9050919050565b7f416363657373436f6e74726f6c3a2063616e206f6e6c792072656e6f756e636560008201527f20726f6c657320666f722073656c660000000000000000000000000000000000602082015250565b6000613298602f836129e7565b91506132a38261323c565b604082019050919050565b600060208201905081810360008301526132c78161328b565b9050919050565b7f455243373231456e756d657261626c653a20676c6f62616c20696e646578206f60008201527f7574206f6620626f756e64730000000000000000000000000000000000000000602082015250565b600061332a602c836129e7565b9150613335826132ce565b604082019050919050565b600060208201905081810360008301526133598161331d565b9050919050565b7f4e487b7100000000000000000000000000000000000000000000000000000000600052603260045260246000fd5b7f4552433732313a20696e76616c696420746f6b656e2049440000000000000000600082015250565b60006133c56018836129e7565b91506133d08261338f565b602082019050919050565b600060208201905081810360008301526133f4816133b8565b9050919050565b7f4552433732313a2061646472657373207a65726f206973206e6f74206120766160008201527f6c6964206f776e65720000000000000000000000000000000000000000000000602082015250565b60006134576029836129e7565b9150613462826133fb565b604082019050919050565b600060208201905081810360008301526134868161344a565b9050919050565b7f4552433732313a207472616e736665722066726f6d20696e636f72726563742060008201527f6f776e6572000000000000000000000000000000000000000000000000000000602082015250565b60006134e96025836129e7565b91506134f48261348d565b604082019050919050565b60006020820190508181036000830152613518816134dc565b9050919050565b7f4552433732313a207472616e7366657220746f20746865207a65726f2061646460008201527f7265737300000000000000000000000000000000000000000000000000000000602082015250565b600061357b6024836129e7565b91506135868261351f565b604082019050919050565b600060208201905081810360008301526135aa8161356e565b9050919050565b7f4552433732313a20617070726f766520746f2063616c6c657200000000000000600082015250565b60006135e76019836129e7565b91506135f2826135b1565b602082019050919050565b60006020820190508181036000830152613616816135da565b9050919050565b7f4552433732313a207472616e7366657220746f206e6f6e20455243373231526560008201527f63656976657220696d706c656d656e7465720000000000000000000000000000602082015250565b60006136796032836129e7565b91506136848261361d565b604082019050919050565b600060208201905081810360008301526136a88161366c565b9050919050565b600081905092915050565b7f416363657373436f6e74726f6c3a206163636f756e7420000000000000000000600082015250565b60006136f06017836136af565b91506136fb826136ba565b601782019050919050565b6000613711826129dc565b61371b81856136af565b935061372b8185602086016129f8565b80840191505092915050565b7f206973206d697373696e6720726f6c6520000000000000000000000000000000600082015250565b600061376d6011836136af565b915061377882613737565b601182019050919050565b600061378e826136e3565b915061379a8285613706565b91506137a582613760565b91506137b18284613706565b91508190509392505050565b7f5061757361626c653a206e6f7420706175736564000000000000000000000000600082015250565b60006137f36014836129e7565b91506137fe826137bd565b602082019050919050565b60006020820190508181036000830152613822816137e6565b9050919050565b7f5061757361626c653a2070617573656400000000000000000000000000000000600082015250565b600061385f6010836129e7565b915061386a82613829565b602082019050919050565b6000602082019050818103600083015261388e81613852565b9050919050565b600081519050919050565b600082825260208201905092915050565b60006138bc82613895565b6138c681856138a0565b93506138d68185602086016129f8565b6138df81612a22565b840191505092915050565b60006080820190506138ff6000830187612b23565b61390c6020830186612b23565b6139196040830185612bb9565b818103606083015261392b81846138b1565b905095945050505050565b6000815190506139458161294d565b92915050565b60006020828403121561396157613960612917565b5b600061396f84828501613936565b91505092915050565b7f455243373231456e756d657261626c653a20636f6e736563757469766520747260008201527f616e7366657273206e6f7420737570706f727465640000000000000000000000602082015250565b60006139d46035836129e7565b91506139df82613978565b604082019050919050565b60006020820190508181036000830152613a03816139c7565b9050919050565b7f4e487b7100000000000000000000000000000000000000000000000000000000600052601160045260246000fd5b6000613a4482612a8e565b9150613a4f83612a8e565b9250828202613a5d81612a8e565b91508282048414831517613a7457613a73613a0a565b5b5092915050565b6000613a8682612a8e565b9150613a9183612a8e565b9250828201905080821115613aa957613aa8613a0a565b5b92915050565b6000613aba82612a8e565b915060008203613acd57613acc613a0a565b5b600182039050919050565b7f537472696e67733a20686578206c656e67746820696e73756666696369656e74600082015250565b6000613b0e6020836129e7565b9150613b1982613ad8565b602082019050919050565b60006020820190508181036000830152613b3d81613b01565b9050919050565b7f4552433732313a206d696e7420746f20746865207a65726f2061646472657373600082015250565b6000613b7a6020836129e7565b9150613b8582613b44565b602082019050919050565b60006020820190508181036000830152613ba981613b6d565b9050919050565b7f4552433732313a20746f6b656e20616c7265616479206d696e74656400000000600082015250565b6000613be6601c836129e7565b9150613bf182613bb0565b602082019050919050565b60006020820190508181036000830152613c1581613bd9565b9050919050565b6000613c2782612a8e565b9150613c3283612a8e565b9250828203905081811115613c4a57613c49613a0a565b5b92915050565b7f4e487b7100000000000000000000000000000000000000000000000000000000600052603160045260246000fdfea2646970667358221220664e699e9dd6999b330a3c378cd1b8d001725c1937fa6c8c7737e8a29405b33764736f6c63430008120033",
  "linkReferences": {},
  "deployedLinkReferences": {}
}